:100000000C942B000C9453000C9453000C9453004C
:100010000C9453000C9453000C9453000C94530014
:100020000C9453000C9453000C9453000C94530004
:100030000C9453000C9453000C9453000C945300F4
:100040000C9453000C9453000C9453000C945300E4
:100050000C945300BC0511241FBECFE5D4E0DEBFD5
:10006000CDBF10E0A0E6B0E0E8EEFCE002C00590F5
:100070000D92AA37B107D9F713E0AAE7B0E001C0A3
:100080001D92AE3CB107E1F710E0C6E5D0E004C038
:100090002297FE010E946E06C435D107C9F70E945F
:1000A00090020C9472060C9400001816190664F461
:1000B00021E030E040E050E0220F331F4F5F5F4F00
:1000C00048175907C9F702C021E030E0822F932F6B
:1000D0000895CF93DF93CDB7DEB760970FB6F8944E
:1000E000DEBF0FBECDBFDE011196E0E6F0E080E19D
:1000F00001900D928150E1F7FE017196AEE7B0E0FC
:10010000AE014F5F5F4F329720812F7028BB208157
:10011000207F22BB2C9112962BBB8BEB92E0019798
:10012000F1F700C00000E417F50769F7FE0131960A
:1001300068E272E09A01205F3F4FCF0140814F702B
:1001400048BB3296DC018C91807F82BBDB018C91B5
:100150006E5F7F4F8BBB8BEB92E00197F1F700C096
:100160000000E217F30749F760960FB6F894DEBF78
:100170000FBECDBFDF91CF9108958FB9779BFECF92
:10018000779A0895CF93DF93CDB7DEB7C455D340A8
:100190000FB6F894DEBF0FBECDBFFE01EF53FE4F8A
:1001A000DE01A757BD4FCD01119211921D921D92F4
:1001B000E817F907C9F7A4E2B2E0FE01E555FE4FE2
:1001C0008AEA91E001900D920197E1F784E090E0D6
:1001D0009093250280932402109227021092260207
:1001E0008FEF90E0909329028093280290932B0246
:1001F00080932A0290932D0280932C0290932F02D9
:1002000080932E02909331028093300290933302B8
:100210008093320290933502809334029093370298
:100220008093360210923902109238021092CB035A
:100230001092CA031092CD031092CC03FE01779660
:10024000DE01A152BF4FCD01119211921D921D925C
:10025000E817F907C9F7AAE7B0E0FE0131968AEA84
:1002600091E001900D920197E1F784E090E0909386
:100270007B0080937A0010927D0010927C008FEFBB
:1002800090E090937F0080937E0090938100809314
:1002900080009093830080938200909385008093E8
:1002A00084009093870080938600909389008093C8
:1002B000880090938B0080938A0090938D008093A8
:1002C0008C0010928F0010928E00109221021092DA
:1002D00020021092230210922202CC5ADC4F0FB659
:1002E000F894DEBF0FBECDBFDF91CF91089516BE4B
:1002F00088EF81B986B7846E86BF86B787EE93E0B4
:100300000197F1F700C00000089580E483B986B733
:10031000846C86BF86B787EE93E00197F1F700C043
:100320000000089586E083B986B7846C86BF86B7DF
:100330008FEF90E7A2E081509040A040E1F700C02D
:10034000000013B886B7846C86BF86B78FEF90E73E
:10035000A2E081509040A040E1F700C0000013B837
:1003600086B7846C86BF86B7A7EEB3E01197F1F726
:1003700000C00000089583B986B7846C86BF86B735
:1003800087EE93E00197F1F700C00000089588E040
:1003900080B9089586B7846D86BF8FEF94E3ACE093
:1003A00081509040A040E1F700C00000089583B95B
:1003B00086B7846C86BF86B78FE19EE40197F1F71C
:1003C00000C0000063B986B7846C86BF86B787EE2D
:1003D00093E00197F1F700C00000089582E083B92F
:1003E00086B7846C86BF86B787EE93E00197F1F7F6
:1003F00000C0000008959A9B0EC080917A009091F1
:100400007B008630910529F0019690937B008093C4
:100410007A009A99FECF9D9B0EC080912402909104
:1004200025028130910529F0019790932502809350
:1004300024029D99FECF9B9B28C080918E009091B5
:100440008F00DC011B96EAE7F0E0AA0FBB1FAE0F9E
:10045000BF1F2081318111963C932E939C0121591D
:100460003F4F220F331FE20FF31F118210820196BC
:1004700090938F0080938E008436910521F4109222
:100480008F0010928E009B99FECF9E9B28C080917A
:10049000380290913902DC011B96E4E2F2E0AA0FE7
:1004A000BB1FAE0FBF1F2081318111963C932E934D
:1004B0009C0121593F4F220F331FE20FF31F11827E
:1004C0001082019690933902809338028436910508
:1004D00021F410923902109238029E99FECF9C9B13
:1004E0000EC080917A0090917B008130910529F0B7
:1004F000019790937B0080937A009C99FECF9F9BFD
:100500000EC080912402909125028630910529F039
:10051000019690932502809324029F99FECF08951F
:10052000CF93DF93CDB7DEB72A970FB6F894DEBF2F
:100530000FBECDBF80EF81BB84B3836084BB8FEFE0
:100540008ABB8FEB87BB0E94C7010E9477010E9484
:1005500085010E9492010E94CA010E9477010E94B7
:1005600085010E94EE0180E78DB9C59880E40E9464
:10057000BD0085E00E94BD0080E00E94BD00C59ADC
:1005800087EE93E00197F1F700C00000C59880E482
:100590000E94BD0080E00E94BD0080E00E94BD007E
:1005A000C59AA7EEB3E01197F1F700C00000C59817
:1005B00080E40E94BD0081E00E94BD0080E00E94B6
:1005C000BD00C59AE7EEF3E03197F1F700C00000F7
:1005D000C59880E40E94BD0082E10E94BD008FEFBB
:1005E0000E94BD00C59A87EE93E00197F1F700C025
:1005F0000000C59880E40E94BD0083E10E94BD0018
:100600008FEF0E94BD00C59A60917000862F0E94F6
:10061000D701AFECB7E01197F1F700C00000809B65
:1006200002C00E94C2000E94FB01E4E2F2E00190DD
:10063000F081E02DFA83E983A6E2B2E0AD90BC90B0
:10064000EAE7F0E0C080D180C6010E9455007C013D
:10065000C60101970E9455008701080F191FC601A6
:1006600001960E945500080F191F2FEF30E0C901B5
:10067000801B910BAEE7B0E011969C938E932E19E0
:100680003F093093810020938000E2E2F2E0808015
:10069000918080918E0090918F00881699060CF0C1
:1006A00028C1C401880F991F0F2EF8E5CF2EF1E065
:1006B000DF2EF02DC80ED91EC401880F991F0F2EF2
:1006C000F0E9EF2EF0E0FF2EF02DE80EF91E0F2ED0
:1006D000FFEF2F2E3324F02D29813A812150304015
:1006E0003C832B8340E750E0A40EB51E89819A819C
:1006F00001969E838D833601D6010D911C912701B1
:10070000F7010190F081E02DF887EF83CF010E947F
:10071000550098012C5F3F4F220F331F26583F4F43
:10072000A101481B590BD90111965C934E93E0E24D
:10073000F2E08081918101969183808369E170E08C
:100740000E944506009709F0C2C02F813885498173
:100750005A812417350709F046C00430110509F005
:1007600042C0ACE7B0E08D919C91119702968D93B9
:100770009C93E0E7F0E0E80FF91FD5018C916081D0
:100780000E94D701ECE7F0E08081918189309105EA
:1007900051F5809926C080917C0090917D00E0E722
:1007A000F0E0E80FF91FD5018C9160810E94D7011C
:1007B0002FEF33ED40E3215030404040E1F700C0DF
:1007C0000000D5018C9160E00E94D7012FEF33ED3E
:1007D00040E3215030404040E1F700C00000809BE2
:1007E000DACF0E94C200D2018D919C911197EB81CA
:1007F000FC818E179F0731F02D813E818217930770
:1008000009F049C0D3018D919C91119785309105D4
:1008100009F041C0ECE7F0E080819181019691837D
:100820008083E0E7F0E0E80FF91FD5018C9160814B
:100830000E94D701ECE7F0E0808191818930910539
:1008400051F5809926C080917C0090917D00E0E771
:10085000F0E0E80FF91FD5018C9160810E94D7016B
:100860002FEF33ED40E3215030404040E1F700C02E
:100870000000D5018C9160E00E94D7012FEF33ED8D
:1008800040E3215030404040E1F700C00000809B31
:10089000DACF0E94C200D3012D913C911197C9017A
:1008A000019611969C938E938630910539F4E2E27D
:1008B000F2E080819181019691838083C901049641
:1008C000880F991F86589F4FDC012D923C92089407
:1008D000811C911CE2E0F0E0CE0EDF1EEE0EFF1E4A
:1008E000AEE8B0E08D919C911197881699060CF4B2
:1008F00002CFEAE7F0E00190F081E02DFA83E9838E
:1009000080907C0090907D00A4E2B2E0CD90DC90DD
:10091000C6010E9455007C01C60101970E94550046
:100920008701080F191FC60101960E945500080F84
:10093000191F2FEF30E0C901801B910B9093290202
:10094000809328022E193F0930932B0220932A020C
:10095000A090CC03B090CD038091380290913902E1
:10096000A816B9060CF005C1C501880F991F0F2EF6
:10097000F2E0CF2EF3E0DF2EF02DC80ED91EC50118
:10098000880F991F0F2EFAE3EF2EF2E0FF2EF02DC5
:10099000E80EF91E0F2EFFEF4F2E5524F02D0F2ECF
:1009A000FAEC2F2EF3E03F2EF02DE981FA813197FA
:1009B000FC83EB8320E730E0280D391D38872F8337
:1009C00049815A814F5F5F4F5E834D834601D60157
:1009D0000D911C913701F7010190F081E02DFA870C
:1009E000E987CF010E94550098012C5F3F4F220FED
:1009F000331F2C5D3D4FA201481B590BD9011196A5
:100A00005C934E93F1018081918101969183808363
:100A100069E170E00E944506009709F098C02981BD
:100A20003A8149855A852417350709F04FC00430AB
:100A3000110509F04BC0A6E2B2E08D919C9111978F
:100A400002968D939C9380599F4FFC018081AF81CA
:100A5000B8856C910E94D701E6E2F2E08081918135
:100A60008930910599F580992FC00F811885809163
:100A7000260290912702E0E7F0E0E80FF91FD80185
:100A80008C9160810E94D7012FEF33ED40E321501C
:100A900030404040E1F700C0000080912602909174
:100AA0002702E0E7F0E0E80FF91F80E060810E9494
:100AB000D7018FEF93EDA0E381509040A040E1F784
:100AC00000C00000809BD3CF0E94C200D3018D9153
:100AD0009C911197EB81FC818E179F0729F02D8146
:100AE0003E8182179307B9F4D4018D919C9111979F
:100AF0008530910581F4E6E2F2E0808191810196F2
:100B00009183808380599F4FDC018C91EF81F88520
:100B100060810E94D701D4012D913C911197C901A8
:100B2000019611969C938E938630910539F4ECECE6
:100B3000F3E080819181019691838083C9010496BD
:100B4000880F991F8C5D9D4FDC014D925C9208943B
:100B5000A11CB11CE2E0F0E0CE0EDF1EEE0EFF1E87
:100B6000A8E3B2E08D919C911197A816B9060CF4F8
:100B70002DCF0E94690053CD84E090E09093250230
:100B80008093240210922702109226028FEF90E0A9
:100B9000909329028093280290932B0280932A023B
:100BA00090932D0280932C0290932F0280932E021B
:100BB00090933102809330029093330280933202FB
:100BC00090933502809334029093370280933602DB
:100BD00010923902109238021092CB031092CA037D
:100BE0001092CD031092CC03EAE3F2E0A2E0B3E06E
:100BF000CD01119211921D921D92E817F907C9F7C4
:100C000084E090E090937B0080937A0010927D00C6
:100C100010927C008FEF90E090937F0080937E0095
:100C20009093810080938000909383008093820052
:100C30009093850080938400909387008093860032
:100C4000909389008093880090938B0080938A0012
:100C500090938D0080938C0010928F0010928E00E4
:100C6000109221021092200210922302109222026E
:100C7000E0E9F0E0A8E5B1E0CD01119211921D92FA
:100C80001D92E817F907C9F7089597FB092E072663
:100C90000AD077FD04D00CD006D000201AF470954D
:100CA00061957F4F0895F6F7909581959F4F089530
:100CB000AA1BBB1B51E107C0AA1FBB1FA617B70782
:100CC00010F0A61BB70B881F991F5A95A9F780959E
:100CD0009095BC01CD010895EE0FFF1F0590F49192
:080CE000E02D0994F894FFCF08
:100CE80001000200040008001000200040008000FD
:0A0CF8003F065B4F666D7D07FF6746
:00000001FF
