S01700004763634170706C69636174696F6E312E737265635B
S11300000C942B000C9453000C9453000C94530048
S11300100C9453000C9453000C9453000C94530010
S11300200C9453000C9453000C9453000C94530000
S11300300C9453000C9453000C9453000C945300F0
S11300400C9453000C9453000C9453000C945300E0
S11300500C9453002B0411241FBECFE5D4E0DEBF63
S1130060CDBF10E0A0E6B0E0E6ECF9E002C00590F8
S11300700D92AA37B107D9F713E0AAE7B0E001C09F
S11300801D92AE3CB107E1F710E0C6E5D0E004C034
S11300902297FE010E94DD04C435D107C9F70E94EE
S11300A019020C94E1040C9400001816190664F467
S11300B021E030E040E050E0220F331F4F5F5F4FFC
S11300C048175907C9F702C021E030E0822F932F67
S11300D00895CF93DF93CDB7DEB760970FB6F8944A
S11300E0DEBF0FBECDBFDE011196E0E6F0E080E199
S11300F001900D928150E1F7FE017196AEE7B0E0F8
S1130100AE014F5F5F4F3297208128BB2C9112962E
S11301102BBB8BEB92E00197F1F700C00000E417D2
S1130120F50789F7FE013196A8E2B2E0405F5F4F20
S11301302081329628BB2C9112962BBB8BEB92E03C
S11301400197F1F700C00000E417F50789F76096FE
S11301500FB6F894DEBF0FBECDBFDF91CF910895E7
S1130160982F907F92BB90989198929AEFECF7E039
S11301703197F1F700C000009298EFE0F7E2319771
S1130180F1F700C000008295807F82BB909891981F
S1130190929A8FEC97E00197F1F700C000009298D3
S11301A0EFE0F7E23197F1F700C00000089582E034
S11301B00E94B00088E20E94B00080E80E94B00073
S11301C08EE00E94B0000895909A9198929A8FECD4
S11301D097E00197F1F700C0000092988FE097E252
S11301E00197F1F700C000000895CF93C82F807FD6
S11301F082BB0E94E400C295C07FC2BB0E94E4009F
S1130200CF91089581E00E94B000089516BE88EF52
S113021081B986B7846E86BF86B78FEF92E5A7E073
S113022081509040A040E1F700C00000089580E4B0
S113023083B986B7846C86BF86B78FEF92E5A7E053
S113024081509040A040E1F700C00000089583E091
S113025083B986B7846C86BF86B78FEF92E5A7E033
S113026081509040A040E1F700C0000013B886B769
S1130270846C86BF86B78FEF92E5A7E081509040EB
S1130280A040E1F700C00000089583B986B7846CEC
S113029086BF86B78FEF92E5A7E081509040A040DB
S11302A0E1F700C00000089588E080B9089586B79A
S11302B0846D86BF8FEF94E3ACE081509040A04002
S11302C0E1F700C00000089583B986B7846C86BF47
S11302D086B7089581E083B986B7846C86BF86B7F4
S11302E08FEF92E5A7E081509040A040E1F700C075
S11302F0000008958FEE82BB80990EC080917A0031
S113030090917B008630910529F0019690937B00B3
S113031080937A00809BFECF82990EC08091240244
S1130320909125028130910529F00197909325023F
S113033080932402829BFECF839902C0839BFECFCD
S11303408FED82BB809928C080918E0090918F00A0
S1130350DC011B96EAE7F0E0AA0FBB1FAE0FBF1F3C
S11303602081318111963C932E939C0121593F4F5A
S1130370220F331FE20FF31F118210820196909314
S11303808F0080938E008436910521F410928F00A3
S113039010928E00809BFECF829928C080913802F3
S11303A090913902DC011B96E4E2F2E0AA0FBB1F34
S11303B0AE0FBF1F2081318111963C932E939C0177
S11303C021593F4F220F331FE20FF31F1182108276
S11303D0019690933902809338028436910521F472
S11303E01092390210923802829BFECF8FEB82BBAF
S11303F080990EC080917A0090917B0081309105A4
S113040029F0019790937B0080937A00809BFECF24
S113041082990EC080912402909125028630910524
S113042029F001969093250280932402829BFECFAB
S11304300895CF93DF9300D000D000D0CDB7DEB7BE
S113044080EF81BB8FE084BB8FEF8ABB87BB0E94A8
S1130450D7000E9454010E9406010E9417010E94C5
S113046027010E9457010E9406010E9417010E9461
S11304706A01809170000E94640185B3837F85BB0B
S11304804DE04A95F1F7000085B38C6085BB0E946E
S11304907A01E4E2F2E00190F081E02DFA83E9834D
S11304A0EAE7F0E0C080D180C6010E9455007C01DB
S11304B0C60101970E9455008701080F191FC60144
S11304C001960E945500080F191F2FEF30E0C90153
S11304D0801B910BEEE7F0E0918380832E193F0996
S11304E03093810020938000E2E2F2E0C080D1806A
S11304F080918E0090918F00C816D9060CF0B8C078
S1130500C601880F991F0F2EF8E5EF2EF1E0FF2E9C
S1130510F02DE80EF91EC601880F991F0F2EF0E981
S11305208F2EF0E09F2EF02D880E991E0F2EFFEFD8
S11305306F2E7724F02D49805A8008944108510881
S113054049815A814F5F5F4F5C834B830F2EF9E1E2
S11305502F2E3324F02D5701F70100811181F4016E
S1130560419151914F015E834D83CA010E94550010
S113057098012C5F3F4F220F331F26583F4FF30142
S1130580E81BF90BCF01F90191838083E0E2F2E0EB
S1130590808191819C012F5F3F4F318320834D8166
S11305A05E8189819A814817590751F404301105F5
S11305B039F4ECE7F0E080819181029691838083A5
S11305C04D815E814415550529F08B819C81481726
S11305D0590751F40530110539F4ECE7F0E0808156
S11305E09181019691838083C901B1010E94B40471
S11305F0009779F580917C0090917D0080599F4F00
S1130600FC0180810E946401AA9887EC90E0019724
S1130610F1F700C00000AA9A85B3837F85BBF5017A
S113062020813181C90101969183808386309105AF
S113063039F4E2E2F2E08081918101969183808332
S1130640C9010496880F991F86589F4FFC01718237
S113065060820894C11CD11C42E050E0E40EF51EF7
S1130660EEE8F0E080819181C816D9060CF473CFCE
S1130670EAE7F0E00190F081E02DFA83E983E4E217
S1130680F2E0C080D180C6010E9455007C01C60101
S113069001970E9455008701080F191FC601019692
S11306A00E945500080F191F2FEF30E0C901801B6D
S11306B0910BE8E2F2E0918380832E193F09309395
S11306C02B0220932A02C090CC03D090CD038091BA
S11306D0380290913902C816D9060CF0B9C0C60187
S11306E0880F991F0F2EF2E0EF2EF3E0FF2EF02D6E
S11306F0E80EF91EC601880F991F0F2EFAE38F2EFC
S1130700F2E09F2EF02D880E991E0F2EFFEF6F2E14
S11307107724F02D0F2EFAEC4F2EF3E05F2EF02D00
S113072029803A8008942108310849815A814F5F11
S11307305F4F5C834B835701F70100811181F40102
S1130740419151914F015E834D83CA010E9455002E
S113075098012C5F3F4F220F331F2C5D3D4FF30157
S1130760E81BF90BCF01F90191838083F2018081A9
S113077091819C012F5F3F4F3183208349815A81AE
S11307808D819E814817590751F40430110539F4BD
S1130790E6E2F2E0808191810296918380834D812B
S11307A05E814215530529F08B819C8148175907B6
S11307B051F40530110539F4E6E2F2E080819181CB
S11307C0019691838083C90169E170E00E94B404B9
S11307D0009779F5809126029091270280599F4FC6
S11307E0FC0180810E946401AB9887EC90E0019742
S11307F0F1F700C00000AB9A85B3837F85BBF50198
S113080020813181C90101969183808386309105CD
S113081039F4ECECF3E0808191810196918380833B
S1130820C9010496880F991F8C5D9D4FFC0171824C
S113083060820894C11CD11C42E050E0E40EF51E15
S1130840E8E3F2E080819181C816D9060CF473CFF5
S11308500E9469001CCE84E090E09093250280936E
S1130860240210922702109226028FEF90E09093B8
S113087029028093280290932B0280932A0290935A
S11308802D0280932C0290932F0280932E0290933A
S1130890310280933002909333028093320290931A
S11308A0350280933402909337028093360210927B
S11308B03902109238021092CB031092CA0310929C
S11308C0CD031092CC03EAE3F2E0A2E0B3E0CD0161
S11308D0119211921D921D92E817F907C9F784E04D
S11308E090E090937B0080937A0010927D001092A8
S11308F07C008FEF90E090937F0080937E00909334
S11309008100809380009093830080938200909371
S11309108500809384009093870080938600909351
S113092089008093880090938B0080938A00909331
S11309308D0080938C0010928F0010928E00109284
S11309402102109220021092230210922202E0E966
S1130950F0E0A8E5B1E0CD01119211921D921D9233
S1130960E817F907C9F7089597FB092E07260AD057
S113097077FD04D00CD006D000201AF47095619550
S11309807F4F0895F6F7909581959F4F0895AA1B80
S1130990BB1B51E107C0AA1FBB1FA617B70710F066
S11309A0A61BB70B881F991F5A95A9F78095909598
S11309B0BC01CD010895EE0FFF1F0590F491E02DC9
S10909C00994F894FFCF36
S11309C6010002000400080010002000400080001E
S10D09D6C0F9A4B0A99282F8809839
S9030000FC
